S01300004932435F536C6176655F322E7372656368
S11300000C9434000C9446000C9446000C94460066
S11300100C9446000C9446000C9446000C94460044
S11300200C9446000C9446000C9446000C94460034
S11300300C9446000C9446000C9446000C94460024
S11300400C9446000C9446000C9446000C94460014
S11300500C9446000C9446000C9446000C94460004
S11300600C9497000C94460011241FBECFEFD8E0E7
S1130070DEBFCDBF21E0A0E0B1E001C01D92A230FF
S1130080B207E1F70E947B000C94D6000C940000A8
S113009087B18E7F87B980E480937C0087E8809362
S11300A07A0008958F70ECE7F0E09081907F892BBF
S11300B08083EAE7F0E080818064808380917A0025
S11300C086FDFCCF87EA91E60197F1F700C00000B6
S11300D08091780090917900880F991F880F991F5B
S11300E0089597B19F7C97B9880F8093BA0085E4EF
S11300F08093BC00089578940E94480084B1806283
S113010084B984B18F7D84B980E40E94710080E059
S113011090E00E9452008093000180910101823599
S1130120B1F785B1806285B910920101F0CF1F92B9
S11301300F920FB60F9211248F93EF93FF93809138
S1130140B900887F803899F028F4803651F08037E0
S113015041F01FC0883AA9F0883B99F08039C9F46E
S113016006C0ECEBF0E080818068808317C080914A
S1130170BB0080930101ECEBF0E080818068808318
S11301800DC0809100018093BB0085EC8093BC007E
S113019005C0ECEBF0E0808180698083FF91EF91F2
S11301A08F910F900FBE0F901F901895F894FFCF6A
S9030000FC
