S01100004932435F536C6176652E73726563FB
S11300000C9434000C9446000C9446000C94460066
S11300100C949D000C9446000C9446000C944600ED
S11300200C9446000C9446000C9446000C94460034
S11300300C9446000C9446000C9446000C94460024
S11300400C9446000C9446000C9446000C94460014
S11300500C9446000C9446000C9446000C94460004
S11300600C94B3000C94460011241FBECFEFD8E0CB
S1130070DEBFCDBF21E0A0E0B1E001C01D92A530FC
S1130080B207E1F70E9452000C94FC000C940000AB
S113009097B19F7C97B9880F8093BA0085E48093C9
S11300A0BC0008958FEF84B915B887B18E7F87B9E6
S11300B087B18D7F87B9E8E6F0E080818260808334
S11300C0ECE6F0E080818360808380E30E94480056
S11300D07894809102018130A1F4809103018F30E2
S11300E040F4809103018F5F809303011092020119
S11300F008C0809103018F3021F480930301109292
S11301000201809101018130A1F4809103018823CF
S113011041F0809103018150809303011092010109
S113012008C080910301811104C010920301109250
S113013001018091030185B9CCCF1F920F920FB6B4
S11301400F9211248F93309903C081E080930201B0
S1130150319903C081E0809301018F910F900FBE0C
S11301600F901F9018951F920F920FB60F921124A3
S11301708F93EF93FF938091B900887F8039A9F022
S113018038F4803761F0803881F0803641F507C05B
S1130190883BA9F0803CE9F0883A09F510C0ECEB03
S11301A0F0E08081806C80831FC08091BB008093CD
S11301B00001ECEBF0E08081806C808315C08091BD
S11301C003018093BB00ECEBF0E08081806C8083C2
S11301D00BC0ECEBF0E08081806C808305C0ECEB1D
S11301E0F0E0808180698083FF91EF918F910F907F
S10F01F00FBE0F901F901895F894FFCFDD
S9030000FC
